:400000000040002011000000E9030000E903000010B500F009FAC04610B512221B4B1A60302000F055FB1A4A1A4B1A601A4A1B4B1A601B4B1B4A1A60BC2189011A4A116048
:400040001A4A1A6088218901194A1160194A1A6082221206184B1A608022D202174B1A604223174A1360174A13604122164B1A60013A164B1A601649072000F05FFA07207C
:4000800000F050FA0022134B1A6010BD300010400600008004010B40007FBB00080301400000014042FF00800403014041FF00800003014040FF008008010B4000010B40B6
:4000C0004C0101402C0101402801014014010140250800000C020B4010B572B601222E4B1A7000240FE02D486200131959000B00411889881A5AC31858880004104300F051
:4001000031F90134E4B2012CEDD924490C312448383000F00DF9234A234B1A60EE221202224B1A609922224B1A6099231B04214A1360A821C903204A1160204A1360012337
:400140001F4A13601F4A13601F490B783C22934314221343DBB20B701C4A117816230B43DBB2137013221A4B1A601A4A1A4B1A6003221A4B1A60D8221201194B1A60022323
:40018000184A13603121184A1160184A1360FFF743FF00F0FDF810BD1C700F40601F0000E01F00000600080000020240000302400007024020500F4028500F4030500F40F8
:4001C0002000104000800F4001700F4000700F40000204400360000008020440180204400803044000070440080704401807044010B5064C2378002B07D1054B002B02D09A
:40020000044800E000BF0123237010BD4801002000000000141F0000084B10B5002B03D00749084800E000BF07480368002B00D110BD064B002BFBD09847F9E700000000D5
:400240004C010020141F0000C00000200000000010B50122024B1A7000F070FD10BDC0466401002070B59CB062B62A4800F06CFD012000F031FB012000F040FBFA20800013
:4002800000F022FB002000F04DFB00F0D7FC00F0C3FB00F09DFB00F0E1FC1F4800F032FC1E4B1B78012BFBD100221C4B1A701C4800F028FC002000F0DBFC05000100002002
:4002C00000F0ECFC060001F05DF9164900F00AFF154901F021F801F033F904006422002103A801F0EAF9009433002A000F4903A801F0ECF903A800F005FC6421200000F0D7
:4003000005FEFA239B00584300F00CFB00F010FDC6E7C04651020000181F000064010020201F000000404E450000C8422C1F0000F0B50025002711E0BB00C658F3B2FF22C9
:40034000964308E06A008A181478A419527822700135013BDBB2002BF4D10137092FEBD9F0BDC04610B50A00002101F0A6F910BD064B1B68002803D080221206134301E028
:400380005B005B08014A13607047C04680033A4010B580231B060B4A136003220A490A600A480B4908600B490A600B4A13600B4A0B4B1A6000220B4B1A600120FFF7D8FF3B
:4003C00010BDC046000030403000304001400400800030403000314000003A400002400000033A40000E3F4010B501F031F903680C2B00D1FEE7FEE710B50300084A1068CF
:40040000C318084A9A1A802A02DC054A136005E001F01EF90C2303600120404210BDC046C4000020B001002070B50F4E0F4D13E029686B68AC68002202E001C901C30432D6
:40044000A242FAD1E868002202E0002102C304328242FAD11035013E002EE9D101F0FEF8FFF700FFFEE7C046010000008C21000010B50E4A136801218B43136000230AE0E5
:40048000032B03D89A000A49505800E009489900094A885001332F2BF2D9FFF71DFE034A116801230B43136010BDC0460000104000000000E90300000000002000230AE058
:4004C0000D4A12683F210A400C49C95C8A4201D1033303E001332D2BF2D9032308490868084A02400A60084A944663441B78DBB2064A13607047C0462CFF0B4040200000CB
:4005000000002240FFFFFFBFCDF1FF0F28FF0B40034B18688023DB05184000D001207047000022401F2318401E3B8340014A13607047C04600E100E001BE704770B504001B
:400540000D001F2802D90020FFF7F6FF1034A40080239B059C4664442068256070BDC04670B504000E00032902D90020FFF7E4FF1F2C02D90020FFF7DFFF03252540ED0081
:40058000063500F0FAFBA408A400074B9C46644421680323AB4099430B003100A9401943216000F0EEFB70BD00E400E010B5040006E0084B586800F0D7FB074B9C4664444D
:4005C00080231B029C42F4D8024B9868604300F0CBFB10BDC80000200080FFFF70B582B000F0CAF800285DD000F0C7FB050000230AE02D4A12683F210A402C49C95C8A4295
:4006000001D1033303E001332D2BF2D903230021274A1160274A1268D20606D1254802681F318A4313390A430260234C2168234A1140234A5A438023DB019C466244D20B22
:40064000013A5205520D0B001343A0225203134323601C4B1B680193302000F095FB1A4A13688021C9050B4313602668174B1E40002407E00120FFF799FF1034A305334371
:400680000D4A1360EE2CF5D90120FFF78FFFFF239B051E43084B1E60019A0A4B1A60280000F06FFB02B070BD2CFF0B404020000028FF0B4034FF0B400800224000F800C03C
:4006C00040420F003000104000002240FFFF3FC030B587B0040000F050FB0500FFF718FF002803D0FFF7EAFE012100E00021104B1B6800930F4B1B680193033C0E4B1B5D2F
:4007000002930E4B1B68039304AA0D4B04936B4605930C4B1A600C480C4A10601B68012901D1FFF75BFF280000F02BFB07B030BD08010B4000010B404020000030001040B0
:40074000B6EA000008001040170000800400104010B5034B1B7B584300F006FB10BDC046C8000020034B1868C0231B02184000D00120704700010B40034B1B68002B01DAB5
:40078000012000E0002070470000224010B500F0F4FA044A1368C02109020B43136000F0F0FA10BD00010B4010B500F0E6FA08490A68084B1A408024E40122430A600A6824
:4007C00013408022120213430B6000F0DAFA10BD00010B40FF3FFFFF70B5050000F0CDFA0400FFF7BFFF002803D0FFF7DDFF012100E0002108482840084A1568084B2B4048
:40080000184310601368012901D1FFF7BFFF200000F0B7FA70BDC0460404040010020B40FBFBFBFF10B5244B1B685B0715D5234B5B685B070ED5224B596A042001401F4CFC
:4008400062688A4362605A6A82435A629B69002B00D098470420FFF7BFFF174B1B685B0518D5164B5B685B0510D5154B596A8022D2001140114842688A434260596A114A11
:400880000A405A62DB69002B00D098478020C000FFF7A2FF084B1B685B030CD5074B5B685B0304D5064B1B6A002B00D098478020C002FFF791FF10BD10020B40DC000020FE
:4008C00068010020FFFBFFFF0004000C014B18607047C0461401204010B5040000F04DFA054B1A6801218A431A601A680C4014431C6000F046FA10BD0001204070B504000E
:4009000000F03BFA064A136802218B4313601568630019400C002C43146000F032FA70BD000120400004000C014B18607047C0460C012040034A117880235B420B43DBB2A2
:400940001370704773000F40014B18707047C04683000F40014B1878C0B2704763000F40014B18807047C04644100F40014B188880B2704784100F40014B18807047C046C4
:4009800004100F4010B501E0FFF7F0FFFFF7E2FF0307F9D410BDC04610B5F424FF342000FFF7DEFF2000FFF7E7FF00F0E6F9074A117810230B43DBB2137000F0E2F9FFF7CE
:4009C000E1FF0120FFF7C0FF10BDC04693000F4010B5064B1B78002B04D1FFF7DDFF0122024B1A70FFF7A6FF10BDC0469001002010B500F075F810BD10B500F01DF810BD72
:400A000010B5044A1368802109060B431360FFF7EFFF10BD0000274010B5064B1B78002B04D1FFF7E9FF0122024B1A70FFF7E8FF10BDC04692010020154A164B1A6000235E
:400A4000154A13601549164A1160164A16490A6007201649086016490B6006381549086015490A60154A13600421154A1160154A1360154A1360154A1360154A1360154A5A
:400A80001360154A13601268144B1A807047C0460B000002000027404000274001000A00480027400700008000032740040327401003274044002740000227400402274092
:400AC00050002740880E2740C80E2740480F2740080F2740C80F2740880F27409401002005490B68F0229343603A13430B60034B1A88034B1A607047000702409401002067
:400B0000880F274070B50500002402E000F066F90134285D0028F9D170BDC04610B503211020FFF71DFD22491020FFF707FD0122204B1A60204B1B68002B01DA1F4900E057
:400B40001F49204A13680B4313601F4A1F4B1A601F4A204B1A60C02212061F4B1A601F4B1F4A13601F4A136000231F4A13601F4A136001221E4B1A601E4A11681E4B0B4056
:400B8000802189050B43136000230EE09A001B495118802040000860580080242401184944521848184950500133002BEED010BDF90C000020003A4080033A4070021053B1
:400BC0007002005300003A408400008004003A400000FF0718003A401C003A400400040010003A4014003A4028023A4038023A4018023A4030003A40FEFFFFDF80003A407B
:400C0000A40100203E180000A001002010B5094B1B68002B0CDB084B1B68002BFBDB054A1368802109060B4313600A20FFF790FD10BDC04600003A4008023A4010B5064B84
:400C40001B78002B04D1FFF769FF0122024B1A70FFF7DCFF10BDC04696010020034A1368802149020B4313607047C04604003A4010B5041E02D00020FFF75EFC002C07D151
:400C8000A400054B9C46644420680004000C00E0002000B210BDC04680013A4070B504000D00002802D00020FFF746FC63000F4A995A09B2691A09B20D484843002906DD82
:400CC000A3000C4A9A58D30F9A18531006E0A300084A9A58D30F9A18521053421818A400044BE15800F012F900B270BDA401002010270000A0010020014B1A681A607047C8
:400D000010023A40014B18647047C0460000002010B5040000F031F8044A1368C0218B43A4011C43146000F02CF810BD00E400E00122014B1A60704700E100E00122014B3B
:400D40001A60704780E100E010B50400FFF7F6FF2000FFF7D7FF0320FFF7DAFFFFF7E8FF10BDC046000000000230800803D00138FDD1C046C046C0467047EFF3108072B6C8
:400D8000704780F31088704770B50400FFF7F5FF0500102C05D8104A136803218B43136016E0202C07D80C490B6803229343023A13430B600CE0302C07D807490B6803225F
:400DC0009343013A13430B6002E00020FFF7B4FB2800FFF7D6FF70BD30001040044B1B681F221340082BF9D0024B18607047C0460802274040022740002243088B4274D35B
:400E000003098B425FD3030A8B4244D3030B8B4228D3030C8B420DD3FF22090212BA030C8B4202D31212090265D0030B8B4219D300E0090AC30B8B4201D3CB03C01A5241B3
:400E4000830B8B4201D38B03C01A5241430B8B4201D34B03C01A5241030B8B4201D30B03C01A5241C30A8B4201D3CB02C01A5241830A8B4201D38B02C01A5241430A8B428A
:400E800001D34B02C01A5241030A8B4201D30B02C01A5241CDD2C3098B4201D3CB01C01A524183098B4201D38B01C01A524143098B4201D34B01C01A524103098B4201D3BE
:400EC0000B01C01A5241C3088B4201D3CB00C01A524183088B4201D38B00C01A524143088B4201D34B00C01A5241411A00D20146524110467047FFE701B5002000F0F0F865
:400F000002BDC0460029F7D076E7704703460B437FD4002243088B4274D303098B425FD3030A8B4244D3030B8B4228D3030C8B420DD3FF22090212BA030C8B4202D3121222
:400F4000090265D0030B8B4219D300E0090AC30B8B4201D3CB03C01A5241830B8B4201D38B03C01A5241430B8B4201D34B03C01A5241030B8B4201D30B03C01A5241C30A02
:400F80008B4201D3CB02C01A5241830A8B4201D38B02C01A5241430A8B4201D34B02C01A5241030A8B4201D30B02C01A5241CDD2C3098B4201D3CB01C01A524183098B42C0
:400FC00001D38B01C01A524143098B4201D34B01C01A524103098B4201D30B01C01A5241C3088B4201D3CB00C01A524183088B4201D38B00C01A524143088B4201D34B0059
:40100000C01A5241411A00D201465241104670475DE0CA0F00D04942031000D34042534000229C4603098B422DD3030A8B4212D3FC22890112BA030A8B420CD389019211CD
:401040008B4208D3890192118B4204D389013AD0921100E08909C3098B4201D3CB01C01A524183098B4201D38B01C01A524143098B4201D34B01C01A524103098B4201D32F
:401080000B01C01A5241C3088B4201D3CB00C01A524183088B4201D38B00C01A5241D9D243088B4201D34B00C01A5241411A00D20146634652415B10104601D34042002BAE
:4010C00000D54942704763465B1000D3404201B5002000F005F802BD0029F8D016E770477047C046F0B5564644465F464D46F0B444024600C70F83B08846650A360EBA46CF
:401100003DD0FF2E22D00023EC00802599469B46ED0425437F3E43465C025800DB0F640A000E984636D0FF2830D080230021E400DB041C437F38301A019048464246084370
:40114000724E800030587A4013008746002D44D108239946063B9B46DDE70122FF2000241A406402C305640AD2071C431443200003B03CBC90469946A246AB46F0BD002DBD
:4011800020D104239946033B9B46C4E7002C17D1022102E0002C0AD10121321A01924A4643460A435A48920082587B409746200000F030FA431F76309C4040420021BAE7DF
:4011C0000321B8E7280000F025FA431F9D4000237630464299469B469DE70C239946093B9B4698E780240022E403FF20B9E70024C2468B465A465346022AAED0032A7DD0A9
:40120000012A31D1012200201A400024A9E70122101A1B2856DD1A4000200024A1E78023DB031D424BD18023DB032B435C02640A3A00FF2095E76D016001854230D2019A88
:401240000024013A01921B220127290064006D00002901DBA84201D82D1A3C43013A002AF3D16A1E95412C4301987F300028CEDD620704D00F222240042A00D00434220155
:4012800003D5244A019814408030FE2800DD64E70122A401640AC0B21A4062E72C00A9E72D1A1A220124CFE76B02BCD500248023DB031C436402640A4246FF2051E71C4285
:4012C000B3D1F4E721002022C140101A8440621E94410C43620704D00F222240042A00D00434620104D5012201201A40002438E70122A401640A1A40002032E78023DB032C
:401300001C436402640A5246FF202AE770200000B0200000FFFFFFF7F0B557464E4645464300E0B446028846760A1F0EC40F002F47D0FF2F25D0002380259A469946F600AA
:40134000ED042E437F3F434642465D02D20F5B006D0A1B0E904640D0FF2B39D080220020ED00D20415437F3BFB1842465746591C62408C4607430F2F5CD86F49BF00C959DB
:401380008F46002E45D108239A46063B9946DAE7424602282DD0032800D1C3E0012800D0A2E0002500260240D4B27602ED05760A2E43E407264330001CBC90469946A246F8
:4013C000F0BD002E1AD104239A46033B9946BAE72A00511E8A41901CC6E70120002DC3D0280000F017F9431F76309D4043420020BAE70124FF2514400026D6E7300000F0D1
:4014000009F9431F9E400023763047429A46994699E70C239A46093B994694E780260024F603FF25C1E735004846B2E7350022004846AEE72904090C0800370C3604360CBE
:401440002C0C7943704367437443060C64183619B14203D980214902884647440004000C310409188D01681E8541890E2943350CED19AD010D43290104D5012369081D40F6
:4014800063460D4319007F31002925DD680704D00F202840042800D00435280103D5274980330D401900FE29A3DC0124AD016E0A1440CDB279E78020C003064207D00542B9
:4014C00005D128434602760A4446FF256DE706437602760AFF2568E70124611A1B2905DD14400025002660E76346CBE72E002023CE40591A8D406B1E9D412E43730704D041
:401500000F233340042B00D00436730104D5012401251440002648E70124B601760A1440002542E780260124F6032E437602760A1440FF2539E7C046F0200000FFFFFFF7BF
:401540004302590A4300C20F1B0E00207E2B0EDD9D2B0DDC802000040143952B0BDC9620C31AD9400B005842002A00D118007047034BD018FBE7963B99400B00F3E7C046CA
:40158000FFFFFF7F70B5002830D0C317C5185D40C40F280000F03EF89E231B1A962B0DDC9622D21A95406A02520AD8B25202C005520AE40702432243100070BD992B19DC82
:4015C0009922D21A9540124A2A40690704D00F210D40042D00D00432510103D50C4B1A409F231B1A9201520AD8B2DFE7002400200022DBE705222E00121AB921D6402A00DD
:40160000C91A8A40551EAA4135001543DBE7C046FFFFFFFB1C2101231B04984201D3000C10391B0A984201D3000A08391B09984201D30009043902A2105C40187047C04674
:4016400004030202010101010000000000000000014B18687047C046440100200E4B70B500251E000D4CE41AA410A54204D0AB00F35898470135F8E700F076FD084B002521
:401680001E00084CE41AA410A54204D0AB00F35898470135F8E770BD7421000074210000742100007C210000002310B59A4203D0CC5CC4540133F9E710BD030082189342AE
:4016C00002D019700133FAE7704700000EB410B59DB002A9029008610B48822488604861012040421FABC881084804CBA400006801938C8100F06EF80023029A13701DB0D8
:4017000010BC08BC03B01847FFFFFF7F44010020F0B58E6885B007000C00039201939E4243D890238A89DB001A423ED003250969236801985B1A029363695D43EB0F5D1970
:40174000029B6D1001331B18AB4200D91D00530510D52900380000F037FB061E14D0029A2169FFF7A1FFA289194B134080221343A38112E02A00380000F086FB061E0CD1BD
:401780002169380000F0D4FA0C23402201203B60A38940421343A38117E0029B2661F61826606561019EED1AA560019BB34200D21E0032000399206800F0A5FA0020A36883
:4017C0009B1BA36023689E19266005B0F0BDC0467FFBFFFFF0B59FB0029005938B890F0016001B0610D50B69002B0DD1402100F0EBFA38603861002804D10C23029A013846
:401800001360D8E040237B61002306AD6B6120336B761033AB7634002378002B03D1A31B049312D003E0252BF9D00134F4E7A31B320039000298FFF76BFF431C00D1B4E00C
:401840006A69049B944663446B612378002B00D1ABE00122002352426A6002A95432521801342B60EB60AB601370AB65534E21780522300000F03CFA002807D00123801B2A
:4018800083402A68013413432B60EFE72B68DA0604D55322202102A8121811701A0704D553222B2102A81218117022782A2A03D0099B00200A210EE0059A111D1268059105
:4018C000002A01DB099204E05242EA60022213432B6001340BE02278303A092A04D84B4301349B180120F6E7002800D0099323782E2B1ED163782A2B0AD1059B02341A1D4A
:401900001B680592002B01DA01235B42079310E000230A201A0001346B6021783039092904D84243013452180123F6E7002B00D00792234E21780322300000F0D9F90028C3
:4019400006D04023801B83402A68013413432B60217806221B48661C297600F0C9F9002812D0194B002B06D10722059B073393430833059314E005AB00933A00134B29001D
:40198000029800E000BF07E005AB00933A000F4B2900029800F08AF80390039B013304D06B69039A9B186B6135E7BB890B985B0601D5012040421FB0F0BDC0463221000020
:4019C000382100003C2100000000000011170000F7B5170001938A680B6900900C00934200DA130022003B6043321278002A01D001333B6023689B0602D53B6802333B60F2
:401A0000062523681D401ED0230043331B785A1E9341226892061CD53020E1184331087021005A1C45310978A2184332023311700FE022000123193201990098089EB04723
:401A4000431C0ED00135E3683A689B1A9D42F0DBDAE72200019943320098089DA847431C02D10120404220E006232068E1683A6803400025042B03D18D1AEB43DB171D4089
:401A8000A3682269934201DD9B1AED180027BD420AD0220001231A3201990098089EB047431CDED00137F2E70020FEBDF0B58BB006920A0043320793059004920A7E0C0079
:401AC000109B6E2A00D1ABE011D8632A22D009D8002A00D1B5E0582A00D0C5E045310A70814A4FE0642A1DD0692A1BD0BCE0732A00D1AAE009D86F2A29D0702A00D0B3E090
:401B0000202209680A43226037E0752A1FD0782A33D0A9E00E001A684236111D196013683370A4E021681A68080606D4490604D5111D19600023D55E02E0111D19601568E1
:401B4000002D3BDA2D23049A6D42137036E021681A68080606D4490604D51568111D1960ADB202E0111D196015685F4B227E039308276F2A1DD00A271BE022007821453256
:401B800011705A4A19680392081D226818600D68100602D4500600D5ADB2D30702D520231A4322601027002D03D1202322689A4322602300002243331A7002E00A274A4BB4
:401BC00003936368A360002B09DB0422216891432160002D05D1049E002B11D07BE0002D79D0049E28003900FFF78CF9039B013E5B5C280033703900FFF7FEF8051EF1D105
:401C0000082F09D12368DB0706D563682269934202DC3023013E3370049B9B1B23612BE009681A68080607D4490605D5111D19601368A28A1A8004E0111D1960136862696B
:401C40001A600023049E236116E01A68111D1960166800216268300000F04AF8002801D0801B6060636803E0260042363270012323610023049A1370079B09AA0093210080
:401C8000069B0598FFF7A4FE431C02D10120404227E02369320006990598079DA847431CF4D0236800259B070FD4099BE068984217DA180015E022000123193206990598FC
:401CC000079EB047431CE1D00135E368099A9B1A9D42F0DBE9E72600039B42361B7833708EE70BB0F0BDC0464321000054210000C9B28218904204D003788B4202D00130B1
:401D0000F8E70020704710B5884202D98B18984201D3002305E09B1A013A08D3995C8154FAE7934203D0CC5CC4540133F9E710BD70B50500002944D00C1F2368002B00DAC9
:401D4000E418280000F0D8F81E4A13681100002B02D16360146031E0A3420DD92268A018834203D118685B688218226063600C6024E0A24203D813005A68002AF9D11E68FF
:401D80009819A0420BD12168711858181960824214D110685268411819605A600EE0A04202D90C232B6009E021686018824203D1106852684118216062605C60280000F0C9
:401DC0009CF870BD9C010020032370B5CD1C9D43083506000C2D01D20C2501E0002D01DBA94202D90C23336048E0300000F084F8234B1C681A002100002913D00B685B1B79
:401E00000DD40B2B02D90B60CC181EE08C4202D1636813601AE04B6863600C0016E00C004968E9E7174C2368002B03D1300000F051F820602900300000F04CF8431C18D0DB
:401E40000323C41C9C43A0420DD12560300000F054F8200007220B30231D9043C31A0ED05A42E2500BE0211A300000F033F8431CEBD10C233000336000F03FF8002070BDBA
:401E80009C01002098010020F8B506000C001500002904D11100FFF797FF040018E0002A03D1FFF745FF2C0012E000F027F885420ED929003000FFF787FF071E07D021003C
:401EC0002A00FFF7F1FB21003000FFF731FF3C002000F8BD002370B5064C050008002360FEF78AFA431C03D12368002B00D02B6070BDC046A8010020704770470B1F1A6851
:401F0000101F002A04DA891804390B68D0180438704700000000000052656164790D0A0041444320726561640D0A00004144432076616C75653A202564200920566F6C74C1
:401F40006167653A202564206D56200920447574794379636C653A2025642025250D0A0000300F40000400400F400004830DB001BE01D804DF011D01404549FF4AFF4BFFDB
:401F80004F0150185A045F016040624064406540668068806A806C806E808E019201B201B601BE40C054C5ECC720C823C9FFCAFFCBFFCD83CE03CF01D018D280D401D80436
:401FC000DA04DB04DF01E040E240E440E540E680E880EA80EC80EE8002020B40182019404101468049054B404E02510152025945728073408010B501C001C208D081D218A1
:40200000D60B6B10DA4083109F10E2205010D404B410EC020101100101000F4004300F4001310F4030320F4015330F4002400F4003410F4002420F4002430F4002600F4051
:40204000030405060708090A0B0C0E0F101112131415161718191B1C1D1E1F2021222325262728292A2B2E2F3031323334350000361200005A11000018120000F011000092
:4020800018120000E411000018120000F01100005A1100005A110000E4110000F01100009C1200009C1200009C1200001E1200005A1100005A11000004120000EE110000E5
:4020C00004120000E411000004120000EE1100005A1100005A110000E4110000EE1100009C1200009C1200009C120000A812000034140000921300009213000090130000FD
:4021000026140000261400001C14000090130000261400001C14000026140000901300002C1400002C1400002C140000B61400004300232D302B2000686C4C0065666745E2
:4021400046470030313233343536373839414243444546003031323334353637383961626364656600000000F8B5C046F8BC08BC9E4670471902000071040000F8B5C046C5
:40218000F8BC08BC9E467047F1010000A0210000C000002088000000680000000000000000000000B0010020010000000000C05D80BB000030000000006CDC02F0000000F5
:4021C0000404040000000000000000000000000000000000000000000000000000000000000000003021000000000000000000000000000000000000000000000000000082
:40220000000000000000000000000000000000000000000000000000000000000000000000000000E40000200000000000000000000000000000000000000000000000009A
:40224000000000000000000000000000000000000000000000000000000000000000000000000000000000000000000000000000000000000000000000000000000000005E
:40228000000000000000000000000000000000000000000000000000000000000000000000000000000000000000000000000000000000000000000000000000000000001E
:4022C00000000000000000000000000000000000000000000000000000000000000000000000000000000000000000000000000000000000000000000000000000000000DE
:40230000000000000000000000000000000000000000000000000000000000000000000000000000000000000000000000000000000000000000000000000000000000009D
:020000040001F9
:0200000490303A
:020000007AF98B
:0200000490402A
:4000000000000000000000000000000000000000000000000000000000000000000000000000000000000000000000000000000000000000000000000000000000000000C0
:400040000000000000000000000000000000000000000000000000000000000000000000000000000000000000000000000000000000000000000000000000000000000080
:0200000490501A
:0C0000000002112D11A1000111378C9A93
:0200000490600A
:0100000001FE
:00000001FF